:020000040800F2
:100000000018002039180008C1170008C31700089D
:1000100000000000000000000000000000000000E0
:10002000000000000000000000000000C5170008EC
:100030000000000000000000C7170008C9170008F2
:10004000B918000800000000B9180008B918000825
:10005000B9180008B9180008B9180008B91800083C
:1000600000000000B9180008B9180008B918000805
:10007000B9180008B9180008B918000800000000F5
:10008000B91800080000000000000000B9180008BE
:1000900000000000B9180008B9180008B9180008D5
:1000A00000000000B918000800000000B91800089E
:1000B000B91800080000000000000000B91800088E
:1000C00010B5064C2378002B07D1054B002B02D02E
:1000D000044800E000BF0123237010BD040000208D
:1000E0000000000014190008044B10B5002B03D0C9
:1000F0000349044800E000BF10BDC04600000000F6
:100100000800002014190008002243088B4274D311
:1001100003098B425FD3030A8B4244D3030B8B4208
:1001200028D3030C8B420DD3FF22090212BA030C11
:100130008B4202D31212090265D0030B8B4219D3F2
:1001400000E0090AC30B8B4201D3CB03C01A524112
:10015000830B8B4201D38B03C01A5241430B8B425A
:1001600001D34B03C01A5241030B8B4201D30B0343
:10017000C01A5241C30A8B4201D3CB02C01A52416A
:10018000830A8B4201D38B02C01A5241430A8B422D
:1001900001D34B02C01A5241030A8B4201D30B0216
:1001A000C01A5241CDD2C3098B4201D3CB01C01A30
:1001B000524183098B4201D38B01C01A524143093A
:1001C0008B4201D34B01C01A524103098B4201D328
:1001D0000B01C01A5241C3088B4201D3CB00C01A95
:1001E000524183088B4201D38B00C01A524143080D
:1001F0008B4201D34B00C01A5241411A00D2014632
:10020000524110467047FFE701B5002000F006F8A4
:1002100002BDC0460029F7D076E770477047C04658
:1002200010B5040000F070FEFA218900FFF76CFFA2
:1002300000F0AEF9012000222100404200F078F9E0
:10024000002010BD10B5064A136810210B4313603F
:100250000020FFF7E5FF01F0F7F9002010BDC046D0
:1002600000200240024A1368013313607047C04601
:1002700020000020014B18687047C0462000002075
:1002800070B5041E00D1B0E0436C002B7DD0636CD0
:10029000DB0600D5A3E021688B6804221A4000D059
:1002A0009DE0636C524803400630FF3003436364B3
:1002B000886803230340012B6DD0CB68182083434B
:1002C000A0680343CB6021680B699B009B086068B2
:1002D00003430B612168CB6846480340CB60A369A8
:1002E0009B03E169C9030B43216A48030343606B25
:1002F000012857D0802040010343E0680343206970
:10030000022851D01343226B52001343626A012A20
:100310004CD0A26AC221FF318A4202D0E16A0A436C
:1003200013432168CA681A43CA60A26B8021490539
:100330008A420DD0012A0BD0022A09D0032A07D005
:10034000042A05D0052A03D0062A01D0072A0AD19B
:100350002068416907229143416120684169A56B8A
:100360002A400A4342612268D26823490A409A42DD
:100370002BD0636C12229343023A13436364A36C41
:100380000F3A1343A36401202EE083644022835478
:1003900001F072F97BE70B68DB079BD4CB681B0489
:1003A00098D48AE71000A7E70422ABE7002903D11D
:1003B000802252021343ACE7626C20210A4362643C
:1003C000A26C1F390A43A264A3E70023A364636CF1
:1003D00003229343023A13436364002004E0636CF6
:1003E000102213436364012070BD0120FCE7C04666
:1003F000FDFEFFFF1902FEFFE7FF3F8330B583B02C
:100400000400002301934033C35C012B00D181E041
:1004100040230122C25403689A68520770D43E4AAE
:100420004868904253D09A6A01200D68A840024360
:100430009A62A36B8022520593421ED0012B1CD0DE
:10044000022B1AD0032B18D0042B16D0052B14D056
:10045000062B12D0072B10D02268506907230340C7
:100460008868984209D050690723984350612068F2
:1004700042698D682B40134343610B681A00103AA0
:10048000012A01D9002040E0244A1268102B09D02B
:100490008023DB031343214A13600B68102B04D025
:1004A000002032E080231B04F4E71D4B18681D492F
:1004B000FFF72AFE830018184300019302E0019B16
:1004C000013B0193019B002BF9D100201DE09A6AAA
:1004D00001200D68A84082439A620B681A00103A06
:1004E000012A01D9002010E00C4A1268102B05D017
:1004F0000D4B1340094A1360002006E00B4BF8E750
:10050000436C202213434364012040230022E25421
:1005100003B030BD0220FBE70110000008270140B6
:100520000000002040420F00FFFFBFFFFFFF7FFFE2
:1005300070B5002811DB8408134DC034A400625943
:1005400003231840C000FC331E008640B2438901DB
:100550000B4083401343635170BDC0B20F22024071
:10056000083A920806329200084BD3185D680324BB
:100570002040C000FF2214008440A54389010A40A6
:1005800082402A435A60E7E700E100E000ED00E026
:1005900001380A4B98420FD8094A50600948036A4B
:1005A0001B021B0AC02109060B4303620023936050
:1005B00007331360002070470120FCE7FFFFFF00B6
:1005C00010E000E000ED00E0F0B5C64600B582B0F6
:1005D000002338E0032600E00026AE4035003D430E
:1005E0000234A400554EA551554C25684246D443CB
:1005F0002E0026404A68D20302D5424615432E00FB
:100600004F4D2E606D682E0026404A68920302D539
:10061000424615432E004A4D6E60AD682E002640BE
:100620004A68D20202D5424615432E00444DAE60C0
:10063000ED682C404A68920202D542462A431400D3
:100640003F4AD46001330A681400DC4071D00125B0
:100650009D402A409046F5D04C68022C01D0122CC7
:100660000ED1DC080834A400275807261E40B60027
:100670000F22B24097430A69B24016003E4326500B
:1006800002685F0003242600BE40F64332409446D1
:100690004A681440BC406246144304604C68621EC1
:1006A000012A03D9112C01D0122C10D184683440B6
:1006B000A446CC68BC406246144384604468AC43A2
:1006C0004A681209012515409D4025434560C468CC
:1006D00026408C68BC403443C4604A68D200B1D51F
:1006E000184DAE6901242643AE61AD692C400194DA
:1006F000019C9C08A51CAD00104EAF5903251D4060
:10070000AD000F26AE40B7439026F605B04200D1AB
:1007100062E70D4EB04208D00C4EB04207D00C4EEE
:10072000B04200D156E7052657E7012655E70226D5
:1007300053E702B004BC9046F0BDC0460000014043
:100740000004014000100240000400480008004876
:10075000000C0048002A01D1816270478161FCE7EA
:1007600010B5041E59D04123C35C002B43D0412354
:100770002422E2542268136801218B43136022680B
:10078000274B61680B4013612268936825490B4031
:100790009360E368012B34D0226884231B02A16894
:1007A0000B439360E368022B32D0226851681E4BE2
:1007B0000B4353602268D3681A490B40D360236906
:1007C00062691343A269120221681343CB60226855
:1007D000E369216A0B4313602268136801210B430C
:1007E00013600023636441221F31A154236301324B
:1007F000A354002010BD40330022C25400F06CFF0F
:10080000B5E7226880231B02A1680B439360C9E708
:100810002368802212015A60C7E70120EAE7C04638
:10082000FFFFFFF0FF7FFFFF00800002F0B54123D4
:10083000C35C202B20D12033C35C012B1ED040246D
:10084000012202554125242343550668336893430A
:100850003360066833680A4F3B403360066833688C
:100860001943316001680B6813430B602023435523
:1008700000230355002000E00220F0BD0220FCE729
:10088000FFEFFFFFF0B54123C35C202B1ED12033C7
:10089000C35C012B1CD04024012202554125242396
:1008A0004355066833689343336006683368094FDD
:1008B0003B4009021943316001680B6813430B6028
:1008C0002023435500230355002000E00220F0BD03
:1008D0000220FCE7FFF0FFFF70B582B00400036860
:1008E000DB072BD5B34B5A680C231340042B1DD0C8
:1008F000B04B5A680C231340082B0ED06368012BB1
:1009000041D0002B56D1AB4B1A68AB490A401A6054
:100910001A68AA490A401A603BE0A64B5B68C022ED
:1009200052021340802252029342E7D1A14B1B682E
:100930009B0303D56368002B00D1F1E123689B077B
:1009400078D59C4B5B680C221A4262D0994B5A684E
:100950000C231340082B53D0E368002B00D18BE00D
:10096000944A136801210B431360FFF783FC0500D1
:10097000904B1B689B0776D4FFF77CFC401B02283A
:10098000F6D90320CFE18B4A116880235B020B4329
:1009900013606368002B25D0FFF76CFC0500854BC6
:1009A0001B689B03CAD4FFF765FC401B6428F6D97B
:1009B0000320B8E1052B09D07E4B1A687E490A4016
:1009C0001A601A687D490A401A60E2E7794B196893
:1009D0008022D2020A431A601968802252020A4316
:1009E0001A60D6E7FFF746FC0500724B1B689B03B5
:1009F000A4D5FFF73FFC401B6428F6D9032092E101
:100A00006C4B5B68C0225202134080221202934258
:100A1000A2D1684B1B689B0704D5E368012B01D06A
:100A2000012080E163490B68F82293432269D200D8
:100A300013430B6023681B0744D5E369002B2ED0BA
:100A40005C4A536A01210B435362FFF713FC050014
:100A5000584B5B6A9B0735D4FFF70CFC401B022800
:100A6000F6D903205FE153490B68F82293432269CA
:100A7000D20013430B60DDE74E4A136801218B431C
:100A80001360FFF7F7FB05004A4B1B689B07D1D5A6
:100A9000FFF7F0FB401B0228F6D9032043E1454A4B
:100AA000536A01218B435362FFF7E4FB0500414B7E
:100AB0005B6A9B0706D5FFF7DDFB401B0228F6D9D2
:100AC000032030E123685B0700D47FE0394BDB690A
:100AD000DB001DD4374AD169802040050143D16134
:100AE000D36903400193019B0125354B1B68DB054E
:100AF00010D5A368012B21D0002B36D12D4B1A6ABB
:100B000001218A431A621A6A03318A431A621AE07F
:100B10000025EAE72A4A116880235B000B43136033
:100B2000FFF7A8FB0600264B1B68DB05E1D4FFF7A7
:100B3000A1FB801B6428F6D90320F4E01D4A136A48
:100B400001210B431362A368002B24D0FFF792FB13
:100B50000600184B1B6A9B0736D4FFF78BFB801BE4
:100B6000184B9842F5D90320DDE0052B09D0114B35
:100B70001A6A01218A431A621A6A03318A431A6285
:100B8000E1E70C4B1A6A04210A431A621A6A033914
:100B90000A431A62D7E7FFF76DFB0600054B1B6A95
:100BA0009B0711D5FFF766FB801B064B9842F5D9D2
:100BB0000320B8E000100240FFFFFEFFFFFFFBFF35
:100BC0000070004088130000012D33D02368DB063D
:100BD00010D56369012B33D0053351D1544A536B7F
:100BE00004218B435363536BF4318B43A169C900D8
:100BF0000B435363236A002B00D193E04C4A5168A6
:100C00000C220A40082A00D18FE0022B4FD0484A1C
:100C1000136848490B401360FFF72CFB0400444B5A
:100C20001B689B017AD5FFF725FB001B0228F6D92C
:100C3000032078E03E4AD3693F490B40D361C5E7C2
:100C40003B4B5A6B04210A435A635A6B03390A43DC
:100C50005A63FFF70FFB0500354B5B6B9B0706D410
:100C6000FFF708FB401B0228F6D903205BE0304960
:100C70004B6BF8229343A269D20013434B63B9E74D
:100C80002B4B5A6B04210A435A635A6B03398A432C
:100C90005A63FFF7EFFA0500254B5B6B9B07A9D55D
:100CA000FFF7E8FA401B0228F6D903203BE0204A70
:100CB000136820490B401360FFF7DCFA05001C4B5A
:100CC0001B689B0106D5FFF7D5FA401B0228F6D911
:100CD000032028E0164BDA6A0F218A43E16A0A43AF
:100CE000DA625A6815490A40A16A606A01430A43F8
:100CF0005A601968802252040A431A60FFF7BAFA50
:100D000004000B4B1B689B0106D4FFF7B3FA001BD2
:100D10000228F6D9032006E0002004E0002002E0CB
:100D2000012000E0002002B070BD0120FBE7C046BA
:100D300000100240FFFFFFFEFFFFFFEFFF7FC2FF3B
:100D400030B589B004AA184B180032C832C211005D
:100D500002680A606A46103313CB13C21B68136023
:100D6000124B5B680C221A40082A1BD1990C0732DF
:100D7000114004A8445C0D49C96A0A406946895C6F
:100D8000C0225202134080225202934205D00848EA
:100D9000FFF7BAF9604309B030BD0548FFF7B4F971
:100DA0006043F8E70248F6E72C19000800100240FB
:100DB00000127A0070B505000C004D4B1A68012333
:100DC00013408B420BD24A490B68012293432343C1
:100DD0000B600B681A40A24201D0012070BD2B6845
:100DE0009B0706D5434A5368F0218B43A9680B4300
:100DF00053602B68DB074BD56B68012B20D0022B8F
:100E000024D03C4A126892076FD53A494A680320B9
:100E1000824313434B60FFF72DFA06006B68012BEA
:100E20001AD0022B26D0334B5B680C221A422FD0EB
:100E3000FFF720FA801B304B9842F4D90320CDE70E
:100E40002C4A12689203E0D40120C7E7294A1268AD
:100E50009201DAD40120C1E7264B5A680C231340D3
:100E6000042B15D0FFF706FA801B234B9842F3D9C9
:100E70000320B3E71F4B5A680C231340082B07D0FD
:100E8000FFF7F8F9801B1C4B9842F3D90320A5E724
:100E9000174B1A6801231340A3420BD914490B685E
:100EA0000122934323430B600B681A40A24201D0F6
:100EB000012093E72B685B0706D50E4A53680F495C
:100EC0000B40E9680B435360FFF73AFF094B5A6840
:100ED00012090F2313400A4AD35CD840094B18600B
:100EE0000020FFF79DF9002078E7012076E7C04653
:100EF000002002400010024088130000FFF8FFFFAE
:100F00004C19000800000020014B18687047C046CB
:100F10000000002070B582B004000368DB0335D503
:100F2000414BDB69DB0052D43F4AD1698020400548
:100F30000143D161D36903400193019B01253B4BE0
:100F40001B68DB0545D5384B1B6AC0229200134055
:100F500013D061680A409A420FD0334B186A344A62
:100F600002401E6A8021490231431962196A314EDA
:100F7000314019621A62C3073FD42B4A136A2C49C5
:100F80000B4061680B431362012D45D02368DB07DA
:100F900006D5254A136B03218B43A1680B431363CA
:100FA00023689B0606D5204A136B10218B43E1680A
:100FB0000B43136323689B0333D51B4A136B8021B8
:100FC0008B4321690B431363002002B070BD0025E1
:100FD000B5E7164A116880235B000B431360FFF7E7
:100FE00049F90600114B1B68DB05ACD4FFF742F949
:100FF000801B6428F6D90320E7E7FFF73BF90600DA
:10100000094B1B6A9B07B8D4FFF734F9801B0A4BC6
:101010009842F5D90320D8E7D36908490B40D3613A
:10102000B4E70020D1E7C046001002400070004045
:10103000FFFCFFFFFFFFFEFF88130000FFFFFFEF35
:1010400030B5036A012293430362036A42688469EC
:101050007325AC430D682C430225AB438D682B43AD
:10106000114DA84205D0114DA84202D0104DA84202
:1010700005D10825AB43CD682B430425AB430A4D6E
:10108000A84205D0094DA84202D0094DA84205D179
:10109000084D2A404D692A438D692A434260846184
:1010A0004A684263036230BD002C014000440140A5
:1010B00000480140FFFCFFFF70B5036A184A134067
:1010C0000362036A4268C4697325AC430E68264311
:1010D000144C23408C6824022343134CA04216D0A6
:1010E000114CA04205D0114CA04202D0104CA0429D
:1010F00007D1104C14404A69120122438C69250122
:101100002A434260C6614A68C263036270BD0A4CEA
:101110001C40CB681B022343084C2340E0E7C04639
:10112000FFFEFFFFFFFDFFFF002C014000440140D8
:1011300000480140FFCFFFFFFFF7FFFFFFFBFFFF6E
:1011400030B5036A114A13400362026A4368C469F6
:101150000F4D2C400D682D022C430E4D15408A6812
:1011600012032A430C4DA84205D00C4DA84202D0D0
:101170000B4DA84204D10B4D2B404D69AD012B43C3
:101180004360C4614B680364026230BDFFEFFFFF40
:10119000FF8CFFFFFFDFFFFF002C014000440140F8
:1011A00000480140FFBFFFFF7047000003681A4A74
:1011B000904202D0194A904203D1702293434A6868
:1011C0001343154A90420BD0144A904208D0144A57
:1011D000904205D0134A904202D0134A904203D164
:1011E000124A1340CA681343802293434A69134347
:1011F00003608B68C3620B688362074B984205D01B
:10120000084B984202D0084B984201D10B69036306
:10121000012343617047C046002C01400004004098
:10122000002000400044014000480140FFFCFFFF57
:1012300070B5041E14D03D23C35C002B0AD03D259D
:1012400002236355211D2068FFF7B0FF012363557A
:10125000002070BD3C330022C25400F071FAEEE76A
:101260000120F6E770B5041E14D03D23C35C002BAB
:101270000AD03D2502236355211D2068FFF796FF04
:1012800001236355002070BD3C330022C254FFF798
:101290008BFFEEE70120F6E770B5036A1022934357
:1012A0000362036A42688469164D2C400D682D0262
:1012B00025432024A3438C6824012343124CA042DD
:1012C00016D0114CA04205D0104CA04202D0104CB8
:1012D000A04207D10F4C14404A69920022438C6906
:1012E000A6003243426085614A688263036270BD32
:1012F0008024A3431C00CB681B0123434024A34349
:10130000DFE7C046FF8CFFFF002C01400044014096
:1013100000480140FFF3FFFF70B504000D003C23BF
:10132000C35C012B69D03C230121C154013301313D
:10133000C154042A37D019D9082A4AD00C2A2AD1F4
:1013400029000068FFF7FCFE2268D16980231B0199
:101350000B43D3612268D36929490B40D3612168CB
:10136000CB692A6912021343CB6114E0002A12D11F
:1013700029000068FFF764FE2268936908210B4387
:1013800093612268936904398B439361226893695E
:1013900029690B4393613D230122E254013B002262
:1013A000E254002070BD29000068FFF775FF226835
:1013B000916980231B010B43936122689369104953
:1013C0000B40936121688B692A69120213438B6178
:1013D000E1E729000068FFF76FFE2268D369082162
:1013E0000B43D3612268D36904398B43D3612268EC
:1013F000D36929690B43D361CDE70220D2E7C04608
:10140000FFFBFFFFF0B589B01422002103A800F014
:1014100079FA284B59698020C003014359615A6900
:1014200002400092009A596980208002014359616C
:101430005A6902400192019A5A698021C9020A43FD
:101440005A615B690B400293029B9025ED050022D7
:10145000A0212800FFF77EF90C23039300240494B5
:10146000059403A92800FFF7AFF8A02303930126F2
:1014700004960594069403A92800FFF7A5F84023D5
:10148000039304940227059703A92800FFF79CF80B
:1014900003970494059603A90748FFF795F8C0231E
:1014A000DB0003930494059603A92800FFF78CF84A
:1014B00009B0F0BD001002400004004870B584B0CF
:1014C0000C22002101A800F01DFA154C154B2360D9
:1014D00000256560A560E56001262661042363613F
:1014E000A561E56125626562C223FF33A362E562FF
:1014F000256366632000FEF7C3FE019580235B0130
:10150000029380235B05039301A92000FEF776FF79
:10151000019601A92000FEF771FF04B070BDC0461E
:10152000B00000200024014010B50D4C0D4B23608D
:101530000D4B63600023A3600122E26023616361BD
:10154000A361E36123622000FFF70AF90021200074
:10155000FFF76CF900212000FFF794F910BDC04699
:1015600024000020005400401A09102030B589B032
:101570001C22002101A800F0C5F90F4C0F4B23607D
:1015800000256560A560E5602561A5612000FFF785
:101590004FFE2000FFF766FE60230193029503953E
:1015A0000595002201A92000FFF7B6FE200000F0FB
:1015B000DDF809B030BDC0467000002000200040BA
:1015C00030B597B02C2200210BA800F09BF9102415
:1015D0001022002106A800F095F91422002101A88C
:1015E00000F090F912230A93113B0D930F930E9480
:1015F00010940225129580231B02139380235B0312
:1016000014930AA8FFF768F90723069307950023A8
:1016100008930993012106A8FFF7CCFB202301932F
:10162000049401A8FFF776FC17B030BD10B5FEF7A3
:1016300009FEFFF7C5FFFFF7E5FEFFF73FFFFFF7E6
:1016400073FFFFF793FFFEE782B00A4B996901220F
:101650001143996199690A400092009ADA698021E0
:1016600049050A43DA61DB690B400193019B02B033
:101670007047C0460010024010B588B00400142224
:10168000002103A800F03EF92268114B9A4201D0D4
:1016900008B010BD0F4B996980208000014399610B
:1016A0009A6902400192019A5A69802189020A438B
:1016B0005A615B690B400293029B032303930493DB
:1016C0007138FF3803A9C005FEF77EFFE0E7C0468A
:1016D000002401400010024010B588B0040014221C
:1016E000002103A800F00EF92268124B9A4201D0A3
:1016F00008B010BD104C62698021C9030A436261C1
:1017000063690B400193019B03220392122304930C
:10171000113B05930692079303A90848FEF754FF6F
:10172000E269802189030A43E261E3690B40029385
:10173000029BDDE700540040001002400014004806
:1017400082B00268074B9A4201D002B07047064A45
:10175000D169802040000143D161D36903400193E6
:10176000019BF2E7002000400010024010B586B057
:1017700004001422002101A800F0C4F822680E4BD6
:101780009A4201D006B010BD0C4A516980208002F7
:1017900001435161536903400093009B102301935F
:1017A0000E3B0293013B049303330593902001A960
:1017B000C005FEF709FFE5E70020004000100240E9
:1017C0007047FEE77047704710B5FEF74BFD10BD40
:1017D000134B1A6801210A431A605A6811480240E3
:1017E0005A601A68104802401A601A680F4802408E
:1017F0001A605A680E4802405A60DA6A0F20824323
:10180000DA621A6B0B4802401A631A6B802002439B
:101810001A635A6B8A435A6300229A607047C04623
:10182000001002400CB8FF08FFFFF6FEFFFFFBFFB1
:10183000FFFFC0FF6CFEFFFF134885461348016899
:10184000090E134A914205D1124813490160134809
:101850001349016013481449144A002302E0D45884
:10186000C4500433C4188C42F9D3114A114C0023DC
:1018700001E013600432A242FBD3FFF7A9FF00F09E
:101880001DF8FFF7D3FEFEE700180020040000005B
:101890001F0000001810024001000000000001407D
:1018A0000000000000000020040000206C19000867
:1018B00004000020FC000020FEE7000070B50026B8
:1018C0000C4D0D4C641BA410A64209D1002600F05B
:1018D00021F80A4D0A4C641BA410A64205D170BD24
:1018E000B300EB5898470136EEE7B300EB58984742
:1018F0000136F2E764190008641900086419000849
:101900006819000803001218934200D1704719703B
:101910000133F9E7F8B5C046F8BC08BC9E467047ED
:0C192000F8B5C046F8BC08BC9E467047F5
:10192C0002030405060708090A0B0C0D0E0F101014
:10193C000102030405060708090A0B0C0D0E0F1013
:10194C000000000000000000010203040607080963
:08195C00000000000102030479
:04196400E90000088E
:04196800C1000008B2
:04196C0000127A00EB
:04000005080018399E
:00000001FF
