:020000040800F2
:10000000001800209D320008D9310008DB310008BB
:1000100000000000000000000000000000000000E0
:10002000000000000000000000000000DD310008BA
:100030000000000000000000DF310008E13100088E
:100040001D330008000000001D3300081D330008A8
:100050001D3300081D3300081D3300081D33000840
:10006000000000001D3300081D3300081D33000888
:100070001D3300081D3300081D3300080000000078
:100080001D3300080000000000000000E9310008F6
:10009000000000001D3300081D3300081D33000858
:1000A000000000001D330008000000001D330008A0
:1000B0001D33000800000000000000001D33000890
:1000C00010B5064C2378002B07D1054B002B02D02E
:1000D000044800E000BF0123237010BD6800002029
:1000E000000000000C3C0008044B10B5002B03D0AE
:1000F0000349044800E000BF10BDC04600000000F6
:100100006C0000200C3C0008002243088B4274D392
:1001100003098B425FD3030A8B4244D3030B8B4208
:1001200028D3030C8B420DD3FF22090212BA030C11
:100130008B4202D31212090265D0030B8B4219D3F2
:1001400000E0090AC30B8B4201D3CB03C01A524112
:10015000830B8B4201D38B03C01A5241430B8B425A
:1001600001D34B03C01A5241030B8B4201D30B0343
:10017000C01A5241C30A8B4201D3CB02C01A52416A
:10018000830A8B4201D38B02C01A5241430A8B422D
:1001900001D34B02C01A5241030A8B4201D30B0216
:1001A000C01A5241CDD2C3098B4201D3CB01C01A30
:1001B000524183098B4201D38B01C01A524143093A
:1001C0008B4201D34B01C01A524103098B4201D328
:1001D0000B01C01A5241C3088B4201D3CB00C01A95
:1001E000524183088B4201D38B00C01A524143080D
:1001F0008B4201D34B00C01A5241411A00D2014632
:10020000524110467047FFE701B5002000F0F0F8BA
:1002100002BDC0460029F7D076E7704703460B437E
:100220007FD4002243088B4274D303098B425FD3EF
:10023000030A8B4244D3030B8B4228D3030C8B421B
:100240000DD3FF22090212BA030C8B4202D3121201
:10025000090265D0030B8B4219D300E0090AC30BD6
:100260008B4201D3CB03C01A5241830B8B4201D383
:100270008B03C01A5241430B8B4201D34B03C01A6C
:100280005241030B8B4201D30B03C01A5241C30AE4
:100290008B4201D3CB02C01A5241830A8B4201D355
:1002A0008B02C01A5241430A8B4201D34B02C01A3F
:1002B0005241030A8B4201D30B02C01A5241CDD2E4
:1002C000C3098B4201D3CB01C01A524183098B422F
:1002D00001D38B01C01A524143098B4201D34B0118
:1002E000C01A524103098B4201D30B01C01A52417B
:1002F000C3088B4201D3CB00C01A524183088B4202
:1003000001D38B00C01A524143088B4201D34B00EA
:10031000C01A5241411A00D201465241104670475C
:100320005DE0CA0F00D04942031000D34042534061
:1003300000229C4603098B422DD3030A8B4212D321
:10034000FC22890112BA030A8B420CD38901921153
:100350008B4208D3890192118B4204D389013AD090
:10036000921100E08909C3098B4201D3CB01C01A65
:10037000524183098B4201D38B01C01A5241430978
:100380008B4201D34B01C01A524103098B4201D366
:100390000B01C01A5241C3088B4201D3CB00C01AD3
:1003A000524183088B4201D38B00C01A5241D9D2EB
:1003B00043088B4201D34B00C01A5241411A00D26C
:1003C0000146634652415B10104601D34042002B68
:1003D00000D54942704763465B1000D3404201B5E7
:1003E000002000F005F802BD0029F8D016E770479C
:1003F0007047C046F0B5CE46474615042D0C2E007A
:1004000080B50704140C3F0C9946030C7E435D43F2
:10041000674363437F19340CE4199C46A54203D912
:1004200080235B029846C4444B4643435143250C0A
:1004300036046544360C2404A4195B1959182000AD
:100440000CBC90469946F0BD10B5040001F022F9AD
:10045000FA218900FFF758FE00F0CAF901200022B6
:100460002100404200F08AF9002010BD10B5064A74
:10047000136810210B4313600020FFF7E5FF02F023
:10048000C5FD002010BDC04600200240024A13688E
:10049000013313607047C046C4000020014B186848
:1004A0007047C046C400002030B583B00190FFF70C
:1004B000F5FF0500019C631C00D00134FFF7EEFF3F
:1004C000401BA042FAD303B030BD000070B5041E3B
:1004D00000D1B0E0436C002B7DD0636CDB0600D50F
:1004E000A3E021688B6804221A4000D09DE0636C71
:1004F000524803400630FF30034363648868032397
:100500000340012B6DD0CB6818208343A0680343C0
:10051000CB6021680B699B009B08606803430B61FB
:100520002168CB6846480340CB60A3699B03E1691F
:10053000C9030B43216A48030343606B012857D06A
:10054000802040010343E06803432069022851D022
:100550001343226B52001343626A012A4CD0A26AF1
:10056000C221FF318A4202D0E16A0A431343216863
:10057000CA681A43CA60A26B802149058A420DD01D
:10058000012A0BD0022A09D0032A07D0042A05D059
:10059000052A03D0062A01D0072A0AD1206841691A
:1005A00007229143416120684169A56B2A400A43B3
:1005B00042612268D26823490A409A422BD0636C78
:1005C00012229343023A13436364A36C0F3A13431A
:1005D000A36401202EE083644022835402F02EFDA8
:1005E0007BE70B68DB079BD4CB681B0498D48AE7B6
:1005F0001000A7E70422ABE7002903D180225202B2
:100600001343ACE7626C20210A436264A26C1F3979
:100610000A43A264A3E70023A364636C0322934309
:10062000023A13436364002004E0636C1022134316
:100630006364012070BD0120FCE7C046FDFEFFFFA2
:100640001902FEFFE7FF3F8330B583B004000023AB
:1006500001934033C35C012B00D181E04023012290
:10066000C25403689A68520770D43E4A4868904260
:1006700053D09A6A01200D68A84002439A62A36B86
:100680008022520593421ED0012B1CD0022B1AD07F
:10069000032B18D0042B16D0052B14D0062B12D008
:1006A000072B10D0226850690723034088689842BE
:1006B00009D05069072398435061206842698D68CA
:1006C0002B40134343610B681A00103A012A01D9E9
:1006D000002040E0244A1268102B09D08023DB035D
:1006E0001343214A13600B68102B04D0002032E022
:1006F00080231B04F4E71D4B18681D49FFF704FD18
:10070000830018184300019302E0019B013B019311
:10071000019B002BF9D100201DE09A6A01200D6891
:10072000A84082439A620B681A00103A012A01D944
:10073000002010E00C4A1268102B05D00D4B13401E
:10074000094A1360002006E00B4BF8E7436C2022B7
:1007500013434364012040230022E25403B030BD20
:100760000220FBE7011000000827014000000020E4
:1007700040420F00FFFFBFFFFFFF7FFF70B5002863
:1007800011DB8408134DC034A400625903231840C0
:10079000C000FC331E008640B24389010B408340F9
:1007A0001343635170BDC0B20F220240083A920851
:1007B00006329200084BD3185D6803242040C00025
:1007C000FF2214008440A54389010A4082402A4345
:1007D0005A60E7E700E100E000ED00E01F23184069
:1007E0001E3B8340014A13607047C04600E100E0B1
:1007F00001380A4B98420FD8094A50600948036AE9
:100800001B021B0AC02109060B43036200239360ED
:1008100007331360002070470120FCE7FFFFFF0053
:1008200010E000E000ED00E0F0B5C64600B582B093
:10083000002338E0032600E00026AE4035003D43AB
:100840000234A400554EA551554C25684246D44368
:100850002E0026404A68D20302D5424615432E0098
:100860004F4D2E606D682E0026404A68920302D5D7
:10087000424615432E004A4D6E60AD682E0026405C
:100880004A68D20202D5424615432E00444DAE605E
:10089000ED682C404A68920202D542462A43140071
:1008A0003F4AD46001330A681400DC4071D001254E
:1008B0009D402A409046F5D04C68022C01D0122C65
:1008C0000ED1DC080834A400275807261E40B600C5
:1008D0000F22B24097430A69B24016003E432650A9
:1008E00002685F0003242600BE40F643324094466F
:1008F0004A681440BC406246144304604C68621E5F
:10090000012A03D9112C01D0122C10D18468344053
:10091000A446CC68BC406246144384604468AC433F
:100920004A681209012515409D4025434560C46869
:1009300026408C68BC403443C4604A68D200B1D5BC
:10094000184DAE6901242643AE61AD692C40019477
:10095000019C9C08A51CAD00104EAF5903251D40FD
:10096000AD000F26AE40B7439026F605B04200D149
:1009700062E70D4EB04208D00C4EB04207D00C4E8C
:10098000B04200D156E7052657E7012655E7022673
:1009900053E702B004BC9046F0BDC04600000140E1
:1009A0000004014000100240000400480008004814
:1009B000000C004803690B4201D100207047012060
:1009C000FCE7002A01D1816270478161FCE703687E
:1009D0009A69920701D500229A6203689A69D20740
:1009E00003D49A6901210A439A61704730B51D000A
:1009F00004686068064B18408905890D12040B00D5
:100A000013432B43039A13430343636030BDC04633
:100A1000009800FC70B504000E00150003689B6987
:100A2000DB0616D523689A69920614D4731CF9D094
:100A3000002E04D0FFF732FD401BB042F2D9412313
:100A40002022E25400232232A354023AA35403206A
:100A500018E0002016E01022DA6123682025DD610D
:100A60002000FFF7B4FF2268536807490B4053602A
:100A7000042363643D33E55400234222A354023A25
:100A8000A354012070BDC04600E800FE70B504000C
:100A90000D00160023689B699B071CD432002900B7
:100AA0002000FFF7B7FF002817D16B1CF2D0002DF4
:100AB00004D0FFF7F3FC801BA842EBD9636C202223
:100AC000134363644123E25400232232A354023AC5
:100AD000A354032000E0002070BD0120FCE7F8B51E
:100AE00006000C0017001D0033689B6923401B1B88
:100AF0005A425341BB4213D16B1CF5D0002D05D097
:100B0000FFF7CCFC069BC01AA842EDD94123202256
:100B1000F25400232232B354023AB354032000E0CB
:100B20000020F8BD70B505000C0016002B689B690D
:100B30009B061AD4320021002800FFF76BFF002823
:100B400015D1002C04D0FFF7A9FC801BA042EDD9E1
:100B50006B6C202213436B644123EA54002322323E
:100B6000AB54023AAB54032070BD0020FCE70120D7
:100B7000FAE7000070B504000D00160023689B69B9
:100B80005B072DD4320029002000FFF743FF002827
:100B900028D123689A69920611D4002D04D0FFF75A
:100BA0007DFC801BA842E9D9636C20221343636457
:100BB0004123E254013B0022E254032070BD202275
:100BC000DA6121684B68084803404B600023636486
:100BD000412162542232A354023AA3540120EDE78A
:100BE0000020EBE70120E9E700E800FE10B5041E55
:100BF00059D04123C35C002B43D041232422E2542B
:100C00002268136801218B4313602268274B6168B7
:100C10000B4013612268936825490B409360E36899
:100C2000012B34D0226884231B02A1680B439360FC
:100C3000E368022B32D0226851681E4B0B4353608D
:100C40002268D3681A490B40D36023696269134351
:100C5000A269120221681343CB602268E369216A0A
:100C60000B4313602268136801210B4313600023B8
:100C7000636441221F31A15423630132A354002035
:100C800010BD40330022C25402F008FAB5E72268D2
:100C900080231B02A1680B439360C9E7236880226D
:100CA00012015A60C7E70120EAE7C046FFFFFFF0E4
:100CB000FF7FFFFF00800002F0B585B005000391C3
:100CC00017001E004123C35C202B00D0A5E0203379
:100CD000C35C012B00D1A3E040230122C254FFF7E3
:100CE000DDFB040080210090192301220902280065
:100CF000FFF7F5FE002800D094E041232122EA54BA
:100D00000133113AEA5400236B646F626E856B63A2
:100D10006B8D9BB2FF2B0CD9FF232B857F3B802251
:100D2000920100925B04FF2203992800FFF75EFE08
:100D30001FE06A8D92B22A858023D2B28021890178
:100D400000919B0403992800FFF750FE11E06B6CA3
:100D5000042B00D068E0012060E06A8D92B22A8501
:100D60008023D2B2002100919B0403992800FFF751
:100D70003DFE6B8D9BB2002B33D022000A992800D8
:100D8000FFF784FE0028E2D16B6A5A1C6A622A6867
:100D90001B7893626B8D013B9BB26B852B8D013B66
:100DA0009BB22B85002BE4D16B8D9BB2002BE0D046
:100DB00000940A9B002280212800FFF790FE002863
:100DC00034D16B8D9BB2FF2BC7D9FF232B857F3B83
:100DD000002200925B04FF3203992800FFF706FE11
:100DE000C7E722000A992800FFF79CFE002804D0DC
:100DF0006B6C042B1CD1012010E02B682022DA61DF
:100E000029684B680B4C23404B604123EA54002374
:100E10002232AB54023AAB5400E0022005B0F0BDE0
:100E20000220FBE70320F9E70320F7E70320F5E7BB
:100E30000320F3E700E800FEF0B585B0050003915C
:100E400017001E004123C35C202B00D0A5E02033F7
:100E5000C35C012B00D1A3E040230122C254FFF761
:100E60001DFB0400802100901923012209022800A3
:100E7000FFF735FE002800D094E041232222EA54F7
:100E80000133123AEA5400236B646F626E856B6320
:100E90006B8D9BB2FF2B0CD9FF232B857F3B9022C0
:100EA000920100925B04FF2203992800FFF79EFD48
:100EB0001FE06A8D92B22A858023D2B290218901E7
:100EC00000919B0403992800FFF790FD11E06B6CE3
:100ED000042B00D068E0012060E06A8D92B22A8580
:100EE0008023D2B2002100919B0403992800FFF7D0
:100EF0007DFD6B8D9BB2002B33D022000A99280018
:100F0000FFF738FE0028E2D12B685A6A6B6A591C39
:100F100069621A702B8D013B9BB22B856A8D013A59
:100F200092B26A85002BE4D16B8D9BB2002BE0D08E
:100F300000940A9B002280212800FFF7D0FD0028A2
:100F400034D16B8D9BB2FF2BC7D9FF232B857F3B01
:100F5000002200925B04FF3203992800FFF746FD50
:100F6000C7E722000A992800FFF7DCFD002804D01B
:100F70006B6C042B1CD1012010E02B682022DA615D
:100F800029684B680B4C23404B604123EA540023F3
:100F90002232AB54023AAB5400E0022005B0F0BD5F
:100FA0000220FBE70320F9E70320F7E70320F5E73A
:100FB0000320F3E700E800FEF0B54123C35C202BDB
:100FC00020D12033C35C012B1ED0402401220255C6
:100FD00041252423435506683368934333600668EC
:100FE00033680A4F3B403360066833681943316009
:100FF00001680B6813430B602023435500230355FE
:10100000002000E00220F0BD0220FCE7FFEFFFFF20
:10101000F0B54123C35C202B1ED12033C35C012BD0
:101020001CD0402401220255412524234355066843
:1010300033689343336006683368094F3B400902C5
:101040001943316001680B6813430B60202343553B
:1010500000230355002000E00220F0BD0220FCE741
:10106000FFF0FFFF70B582B004000368DB072BD5EB
:10107000B34B5A680C231340042B1DD0B04B5A6855
:101080000C231340082B0ED06368012B41D0002B9A
:1010900056D1AB4B1A68AB490A401A601A68AA4984
:1010A0000A401A603BE0A64B5B68C0225202134024
:1010B000802252029342E7D1A14B1B689B0303D5C8
:1010C0006368002B00D1F1E123689B0778D59C4B26
:1010D0005B680C221A4262D0994B5A680C23134069
:1010E000082B53D0E368002B00D18BE0944A13689F
:1010F00001210B431360FFF7D1F90500904B1B68EA
:101100009B0776D4FFF7CAF9401B0228F6D90320C3
:10111000CFE18B4A116880235B020B431360636845
:10112000002B25D0FFF7BAF90500854B1B689B0300
:10113000CAD4FFF7B3F9401B6428F6D90320B8E1FD
:10114000052B09D07E4B1A687E490A401A601A683E
:101150007D490A401A60E2E7794B19688022D20281
:101160000A431A601968802252020A431A60D6E7BD
:10117000FFF794F90500724B1B689B03A4D5FFF79A
:101180008DF9401B6428F6D9032092E16C4B5B6813
:10119000C02252021340802212029342A2D1684B15
:1011A0001B689B0704D5E368012B01D0012080E177
:1011B00063490B68F82293432269D20013430B6002
:1011C00023681B0744D5E369002B2ED05C4A536A81
:1011D00001210B435362FFF761F90500584B5B6A2D
:1011E0009B0735D4FFF75AF9401B0228F6D9032094
:1011F0005FE153490B68F82293432269D2001343FD
:101200000B60DDE74E4A136801218B431360FFF743
:1012100045F905004A4B1B689B07D1D5FFF73EF9FE
:10122000401B0228F6D9032043E1454A536A0121B5
:101230008B435362FFF732F90500414B5B6A9B0712
:1012400006D5FFF72BF9401B0228F6D9032030E121
:1012500023685B0700D47FE0394BDB69DB001DD4DA
:10126000374AD169802040050143D161D3690340E9
:101270000193019B0125354B1B68DB0510D5A36845
:10128000012B21D0002B36D12D4B1A6A01218A4324
:101290001A621A6A03318A431A621AE00025EAE7E1
:1012A0002A4A116880235B000B431360FFF7F6F8AE
:1012B0000600264B1B68DB05E1D4FFF7EFF8801B27
:1012C0006428F6D90320F4E01D4A136A01210B4378
:1012D0001362A368002B24D0FFF7E0F80600184B38
:1012E0001B6A9B0736D4FFF7D9F8801B184B98422E
:1012F000F5D90320DDE0052B09D0114B1A6A012135
:101300008A431A621A6A03318A431A62E1E70C4B74
:101310001A6A04210A431A621A6A03390A431A62D2
:10132000D7E7FFF7BBF80600054B1B6A9B0711D5F3
:10133000FFF7B4F8801B064B9842F5D90320B8E0BC
:1013400000100240FFFFFEFFFFFFFBFF00700040A8
:1013500088130000012D33D02368DB0610D56369A4
:10136000012B33D0053351D1544A536B04218B43A5
:101370005363536BF4318B43A169C9000B4353632F
:10138000236A002B00D193E04C4A51680C220A409A
:10139000082A00D18FE0022B4FD0484A13684849F1
:1013A0000B401360FFF77AF80400444B1B689B0165
:1013B0007AD5FFF773F8001B0228F6D9032078E0EE
:1013C0003E4AD3693F490B40D361C5E73B4B5A6B5B
:1013D00004210A435A635A6B03390A435A63FFF7DD
:1013E0005DF80500354B5B6B9B0706D4FFF756F89D
:1013F000401B0228F6D903205BE030494B6BF822F2
:101400009343A269D20013434B63B9E72B4B5A6B4A
:1014100004210A435A635A6B03398A435A63FFF71C
:101420003DF80500254B5B6B9B07A9D5FFF736F808
:10143000401B0228F6D903203BE0204A13682049CC
:101440000B401360FFF72AF805001C4B1B689B013B
:1014500006D5FFF723F8401B0228F6D9032028E021
:10146000164BDA6A0F218A43E16A0A43DA625A6844
:1014700015490A40A16A606A01430A435A60196823
:10148000802252040A431A60FFF708F804000B4B4D
:101490001B689B0106D4FFF701F8001B0228F6D950
:1014A000032006E0002004E0002002E0012000E02C
:1014B000002002B070BD0120FBE7C04600100240D2
:1014C000FFFFFFFEFFFFFFEFFF7FC2FF30B589B0D8
:1014D00004AA184B180032C832C2110002680A6010
:1014E0006A46103313CB13C21B681360124B5B6840
:1014F0000C221A40082A1BD1990C0732114004A86B
:10150000445C0D49C96A0A406946895CC02252029E
:10151000134080225202934205D00848FEF7F4FDA2
:10152000604309B030BD0548FEF7EEFD6043F8E7C3
:101530000248F6E7243C00080010024000127A003E
:1015400070B505000C004D4B1A68012313408B4207
:101550000BD24A490B680122934323430B600B686B
:101560001A40A24201D0012070BD2B689B0706D50E
:10157000434A5368F0218B43A9680B4353602B689F
:10158000DB074BD56B68012B20D0022B24D03C4AC3
:10159000126892076FD53A494A6803208243134381
:1015A0004B60FEF77BFF06006B68012B1AD0022B05
:1015B00026D0334B5B680C221A422FD0FEF76EFF09
:1015C000801B304B9842F4D90320CDE72C4A126897
:1015D0009203E0D40120C7E7294A12689201DAD4C5
:1015E0000120C1E7264B5A680C231340042B15D069
:1015F000FEF754FF801B234B9842F3D90320B3E737
:101600001F4B5A680C231340082B07D0FEF746FFE8
:10161000801B1C4B9842F3D90320A5E7174B1A688F
:1016200001231340A3420BD914490B6801229343B1
:1016300023430B600B681A40A24201D0012093E7BC
:101640002B685B0706D50E4A53680F490B40E968C3
:101650000B435360FFF73AFF094B5A6812090F23F7
:1016600013400A4AD35CD840094B18600020FEF7AB
:10167000EBFE002078E7012076E7C046002002401C
:101680000010024088130000FFF8FFFF1841000817
:1016900000000020014B18687047C0460000002081
:1016A00070B582B004000368DB0335D5414BDB69BC
:1016B000DB0052D43F4AD169802040050143D1610B
:1016C000D36903400193019B01253B4B1B68DB055C
:1016D00045D5384B1B6AC0229200134013D0616875
:1016E0000A409A420FD0334B186A344A02401E6AAD
:1016F0008021490231431962196A314E3140196221
:101700001A62C3073FD42B4A136A2C490B40616805
:101710000B431362012D45D02368DB0706D5254A0C
:10172000136B03218B43A1680B43136323689B0650
:1017300006D5204A136B10218B43E1680B431363DA
:1017400023689B0333D51B4A136B80218B4321698C
:101750000B431363002002B070BD0025B5E7164AA5
:10176000116880235B000B431360FEF797FE0600B1
:10177000114B1B68DB05ACD4FEF790FE801B642880
:10178000F6D90320E7E7FEF789FE0600094B1B6A3E
:101790009B07B8D4FEF782FE801B0A4B9842F5D90E
:1017A0000320D8E7D36908490B40D361B4E7002090
:1017B000D1E7C0460010024000700040FFFCFFFF70
:1017C000FFFFFEFF88130000FFFFFFEF70B504006E
:1017D0000268D368A0218B43D360FEF75FFE05004B
:1017E0002368DB689B0608D4FEF758FE401BFA23EB
:1017F0009B009842F4D9032000E0002070BD70B532
:1018000004000368DA68520601D5002070BD012289
:101810005242DA60FEF742FE05002368DB685B0691
:1018200008D4FEF73BFE401BFA239B009842F4D9F4
:101830000320EBE70020E9E770B5041E57D0437F93
:10184000002B3CD0022363772368CA225A622368A4
:10185000773A5A622000FFF7D2FF051E33D1226883
:10186000936824490B40936021688A686368206903
:1018700003436069034313438B602368E2681A6182
:1018800021680B69A268120413430B612268D368B4
:1018900080218B43D36023689B689B061BD52268FD
:1018A000136C15490B4013642268136CA1690B4338
:1018B00013642368FF225A620123637709E00377E8
:1018C00001F020FCBEE72368FF225A6204236377FD
:1018D0000125280070BD2000FFF778FF0028DED02A
:1018E0002368FF225A62042363770125F1E701256B
:1018F000EFE7C046BFFF8FFFFFFFFBFF30B5036A76
:10190000012293430362036A426884697325AC43EE
:101910000D682C430225AB438D682B43114DA84223
:1019200005D0114DA84202D0104DA84205D108257E
:10193000AB43CD682B430425AB430A4DA84205D0E9
:10194000094DA84202D0094DA84205D1084D2A40B0
:101950004D692A438D692A43426084614A68426323
:10196000036230BD002C01400044014000480140AA
:10197000FFFCFFFF70B5036A184A13400362036A55
:101980004268C4697325AC430E682643144C234057
:101990008C6824022343134CA04216D0114CA04261
:1019A00005D0114CA04202D0104CA04207D1104CDF
:1019B00014404A69120122438C6925012A4342607E
:1019C000C6614A68C263036270BD0A4C1C40CB68A2
:1019D0001B022343084C2340E0E7C046FFFEFFFF05
:1019E000FFFDFFFF002C0140004401400048014082
:1019F000FFCFFFFFFFF7FFFFFFFBFFFF30B5036ADD
:101A0000114A13400362026A4368C4690F4D2C40B7
:101A10000D682D022C430E4D15408A6812032A438F
:101A20000C4DA84205D00C4DA84202D00B4DA84247
:101A300004D10B4D2B404D69AD012B434360C46174
:101A40004B680364026230BDFFEFFFFFFF8CFFFFB6
:101A5000FFDFFFFF002C014000440140004801402F
:101A6000FFBFFFFF70477047704770477047704770
:101A700010B5040003681A6992070FD5DA68920757
:101A80000CD5032252421A610123037703689B6934
:101A90009B0763D0FFF7E9FF0023237723681A69C8
:101AA000520712D5DA6852070FD5052252421A6141
:101AB0000223237723689A69C0239B001A4253D0DC
:101AC0002000FFF7D2FF0023237723681A6912074B
:101AD00010D5DA6812070DD5092252421A61042383
:101AE00023772368DB699B0745D02000FFF7BDFF04
:101AF0000023237723681A69D20612D5DA68D20642
:101B00000FD5112252421A61082323772368DA691C
:101B1000C0239B001A4235D02000FFF7A6FF002308
:101B2000237723681A69D20702D5DA68D20730D43E
:101B300023681A69120602D5DA68120630D42368BF
:101B40001A69520602D5DA68520630D423681A6937
:101B5000920602D5DA68920630D410BDFFF784FFF2
:101B60002000FFF783FF97E72000FFF77DFF2000AD
:101B7000FFF77CFFA7E72000FFF776FF2000FFF7C5
:101B800075FFB5E72000FFF76FFF2000FFF76EFF3E
:101B9000C5E7022252421A612000FFF764FFC7E73F
:101BA000812252421A61200000F06BF9C7E74122FE
:101BB00052421A612000FFF75AFFC7E72122524222
:101BC0001A61200000F05CF9C7E7000003681A4AB8
:101BD000904202D0194A904203D1702293434A683E
:101BE0001343154A90420BD0144A904208D0144A2D
:101BF000904205D0134A904202D0134A904203D13A
:101C0000124A1340CA681343802293434A6913431C
:101C100003608B68C3620B688362074B984205D0F0
:101C2000084B984202D0084B984201D10B690363DC
:101C3000012343617047C046002C0140000400406E
:101C4000002000400044014000480140FFFCFFFF2D
:101C500070B5041E14D03D23C35C002B0AD03D2573
:101C600002236355211D2068FFF7B0FF0123635550
:101C7000002070BD3C330022C25401F053FAEEE75D
:101C80000120F6E770B5041E14D03D23C35C002B81
:101C90000AD03D2502236355211D2068FFF796FFDA
:101CA00001236355002070BD3C330022C254FFF76E
:101CB000D9FEEEE70120F6E770B5036A10229343E0
:101CC0000362036A42688469164D2C400D682D0238
:101CD00025432024A3438C6824012343124CA042B3
:101CE00016D0114CA04205D0104CA04202D0104C8E
:101CF000A04207D10F4C14404A69920022438C69DC
:101D0000A6003243426085614A688263036270BD07
:101D10008024A3431C00CB681B0123434024A3431E
:101D2000DFE7C046FF8CFFFF002C0140004401406C
:101D300000480140FFF3FFFF70B504000D003C2395
:101D4000C35C012B69D03C230121C1540133013113
:101D5000C154042A37D019D9082A4AD00C2A2AD1CA
:101D600029000068FFF74AFE2268D16980231B0121
:101D70000B43D3612268D36929490B40D3612168A1
:101D8000CB692A6912021343CB6114E0002A12D1F5
:101D900029000068FFF7B2FD2268936908210B4310
:101DA00093612268936904398B4393612268936934
:101DB00029690B4393613D230122E254013B002238
:101DC000E254002070BD29000068FFF775FF22680B
:101DD000916980231B010B43936122689369104929
:101DE0000B40936121688B692A69120213438B614E
:101DF000E1E729000068FFF7BDFD2268D3690821EB
:101E00000B43D3612268D36904398B43D3612268C1
:101E1000D36929690B43D361CDE70220D2E7C046DD
:101E2000FFFBFFFF10B501248C40036AA34303624C
:101E3000036A8A401A43026210BD000010B5040014
:101E400001220068FFF7EEFF23680A4A934205D09B
:101E5000094A934202D0094A934204D1596C802224
:101E600012020A435A642268136801210B4313606B
:101E7000002010BD002C01400044014000480140FA
:101E800070477047F0B589B01422002103A801F013
:101E90007AFA284B59698020C003014359615A6975
:101EA00002400092009A59698020800201435961E2
:101EB0005A6902400192019A5A698021C9020A4373
:101EC0005A615B690B400293029B9025ED0500224D
:101ED000A0212800FEF775FD0C2303930024049431
:101EE000059403A92800FEF79FFCA0230393012675
:101EF00004960594069403A92800FEF795FC402358
:101F0000039304940227059703A92800FEF78CFC8D
:101F100003970494059603A90748FEF785FCC023A0
:101F2000DB0003930494059603A92800FEF77CFCCC
:101F300009B0F0BD001002400004004870B584B044
:101F40000C22002101A801F01EFA154C154B23604C
:101F500000256560A560E5600126266104236361B4
:101F6000A561E56125626562C223FF33A362E56274
:101F7000256366632000FEF7A9FA019580235B01C3
:101F8000029380235B05039301A92000FEF75CFB0D
:101F9000019601A92000FEF757FB04B070BDC046B2
:101FA000080200200024014010B50D4C0D4B2360A9
:101FB0000D4B63600023A3600122E2602361636133
:101FC000A361E36123622000FEF710FE00212000E0
:101FD000FEF7F2FF00212000FFF71AF810BDC046FF
:101FE000D4000020005400401A09102010B5074802
:101FF000074B0360074B436000238360064AC260BF
:10200000036143618361FFF723FE10BD20010020BF
:10201000004801407FBB0000FFFF000030B589B0E1
:102020001C22002101A801F0AEF9124C124B2360D2
:1020300000256560A560114BE36025618023A361E5
:102040002000FFF705FE2000FFF71CFE6023019330
:10205000029503950595002201A92000FFF76CFE6B
:1020600000212000FFF7EAFE200001F08BF809B004
:1020700030BDC046C801002000200040E70300003A
:1020800010B50748074B0360002343607F2282603E
:102090008032C260036143618361FFF7CDFB10BDF5
:1020A000640100200028004000230B4A13800B4AE3
:1020B00013800B4A13800B4B14221A800A4B4222C6
:1020C000FF321A800022002308490A604B60084949
:1020D0000A604B607047C04660010020D0000020BD
:1020E000BC0100208401002062010020C00100200A
:1020F000C800002010B5002806D1002180229200DF
:10210000024801F040F910BDFF21F7E7F40200207A
:10211000F0B583B0019008AC26781700D14236D4D0
:10212000802A34DCDA1D92B2262A30D800220DE053
:102130000198855C5842C54012E016488446A400C8
:1021400020580543604625500132D2B28A421ED241
:10215000D4197F2CF8D8002BEADB0198855C9D40D0
:10216000012EEAD0002E09D0022EEDD10948844676
:10217000A4002058454060462550E5E705488446C0
:10218000A4002058A843050060462550DCE703B0B2
:10219000F0BDC046F4020020F0B583B0019008AC59
:1021A00026781700D14239D4802A37DC1A000F3242
:1021B00092B22E2A32D800220EE0550001982D5AF4
:1021C0005842C54013E016488446A40020580543F1
:1021D000604625500132D2B28A421FD2D4197F2CD8
:1021E000F8D8002BE9DB550001982D5A9D40012EAF
:1021F000E9D0002E09D0022EECD109488446A40073
:102200002058454060462550E4E705488446A40030
:102210002058A843050060462550DBE703B0F0BD19
:10222000F4020020F0B583B0019008AC26781700C6
:10223000D14239D4802A37DC1A001F3292B23E2AAA
:1022400032D800220EE0950001982D585842C54022
:1022500013E016488446A4002058054360462550E4
:102260000132D2B28A421FD2D4197F2CF8D8002B67
:10227000E9DB950001982D589D40012EE9D0002EF4
:1022800009D0022EECD109488446A40020584540CC
:1022900060462550E4E705488446A4002058A8433A
:1022A000050060462550DBE703B0F0BDF4020020D6
:1022B00070B501248C40210082420AD31400020030
:1022C000200006E00D4D960074590C437451013204
:1022D000D2B2904211D3012BF4D0002B07D0022BA5
:1022E000F5D1064D960074594C407451EFE7034DFB
:1022F000960074598C437451E9E770BDF4020020D4
:10230000F0B585B005000E0014001F0000E0013597
:102310002B78002B18D01A00203AD2B25F2AF6D8B8
:10232000203B5A00D3185A0009498918062202A8EE
:1023300001F020F823B232B20097062102A8FFF77D
:10234000E7FE073676B2E2E7F0B205B0F0BDC04670
:10235000D83E0008F0B589B006000C0015001F003B
:1023600013E0303B5A00D318D900114BC91818227A
:1023700002A800F0FFFF2BB222B200970C2102A8A6
:10238000FFF70AFF0E34E4B201363378002B0CD08D
:1023900062B2002A09DB1A00303AD2B20E2AE0D922
:1023A000202BF1D10E34E4B2EEE7200009B0F0BDED
:1023B000703D000810B5020008000A4B5B69012B54
:1023C00005D0022B08D0084901F018F810BD2032C2
:1023D000054901F013F8F9E71232FF32024901F022
:1023E0000DF8F3E7880100203041000810B5FEF732
:1023F00055F810BD10B500F0CFFF10BD10B5FEF7B9
:1024000053F810BD10B582B00C00130041006422D7
:10241000009222000348FEF74FFC43425841C0B2ED
:1024200002B010BDD400002000B583B001A9002384
:102430000B70487002223C20FFF7E4FF03B000BDA0
:10244000F0B589B00E0015006B46187000270FE03C
:102450002024F119621E6B46581C00F08BFF2200ED
:1024600069463C20FFF7CEFF3C19A4B2013CA7B25D
:10247000AF4209D23B0020336A1C9342E8DBEB1BDE
:102480009BB201339CB2E4E709B0F0BD10B5164C25
:10249000042221000020FFF7D3FF1F20FFF7C4FF15
:1024A000211D04220020FFF7CBFF1420FFF7BCFF03
:1024B0002100083104220020FFF7C2FF21000C3167
:1024C00004220020FFF7BCFFD920FFF7ADFFF12069
:1024D000FFF7AAFF2100103106220020FFF7B0FF0E
:1024E000024B00229A6010BD6C3C0008880100205D
:1024F00010B50F49062218310020FFF7A1FF8022F6
:1025000092000C494020FFF79BFF0B4B9B68002B70
:1025100006D1C820FFF788FFA120FFF785FF10BD77
:10252000C020FFF781FFA020FFF77EFFF7E7C0463E
:102530006C3C0008F40200208801002000B583B044
:1025400001AB18705970022219005020FFF75AFF92
:102550000620FFF753FF03B000BD30B583B0050080
:102560000191002407E001AB195D6019C0B2FFF7CB
:10257000E5FF0134E4B2032CF5D903B030BD00000F
:1025800010B582B00C001300400001210143642209
:10259000009222000348FEF74FFC43425841C0B26C
:1025A00002B010BDD400002010B582B004006B460C
:1025B000D91C431C9B000B7001225020FFF722FF07
:1025C000042201A95020FFF7DBFFA400054BE158CE
:1025D000019B994203D06B46D878FFF7BEFF02B04B
:1025E00010BDC0468801002030B583B06B46D91CB1
:1025F00000230B7001225020FFF704FF042201A9E1
:102600005020FFF7BDFF1C4B019A9A4201D10024D4
:102610002EE00020FFF76EFD01230C220021174859
:10262000FFF76EFEFFF764FF002404E02000FFF7D1
:10263000BBFF0134E4B20C2CF8D90F490020FFF79E
:102640008CFFFA204000FFF7D9FE13E0651CEDB2C5
:102650006B46991CAB000B7001225020FFF7D2FE95
:10266000A4000749611804225020FFF789FF2C00BD
:102670000C2CEBD903B030BDB4006BB1384100086D
:102680008801002070B5314B9B68002B20D0802141
:102690009025ED0589002800FEF78CF9444244415D
:1026A000E4B28021C9002800FEF784F94542454183
:1026B000EDB202212648FEF77DF943424341DBB2E9
:1026C000002C1FD0234A1279002A39D010201AE09A
:1026D00080219025ED05C9002800FEF76BF94442E2
:1026E0004441E4B2802189002800FEF763F94542A5
:1026F0004541EDB202211648FEF75CF943424341E1
:10270000DBB2DDE72000002D09D020220243D2B247
:1027100010494979002915D122221043C0B2002B5B
:1027200009D040220243D2B20A49897900290BD14B
:1027300044221043C0B2074A14715571937170BDA1
:102740001120E0E71000EAE71000F4E7880100201C
:102750000004004884000020F0B5CE46474680B50E
:1027600083B004000E00150099460AAB1B7898460A
:10277000002722E001230C2219212B48FFF7C0FD7E
:102780000DE022002949684600F038FE01230822A6
:1027900010216846FFF7DEFD4346002B1AD0FFF7F5
:1027A000A7FEFFF76FFFC3071BD54C441427B442A5
:1027B00000DA3400AC4200DD2C000020FFF79AFC68
:1027C000002CD7D04346002BDBD020B26946FFF760
:1027D000F1FDDBE7013310224B211548FFF790FD97
:1027E000DDE7830703D54B46E41A1427DFE7C3066A
:1027F00007D5002F02D14C440537D8E7013FFFB27F
:10280000D5E7830608D5002F03D14B46E41A0537D8
:10281000CDE7013FFFB2CAE74307C8D5200003B0A8
:102820000CBC90469946F0BD484100084C41000858
:1028300050410008F0B5CE46474680B589B007AB99
:10284000187002125A7000149870002400239946E0
:102850000020FFF74FFC07AB00269E5701229A5637
:1028600090460227DF57009713003200394902A82B
:1028700000F0C4FD01230C220A2102A8FFF740FD4D
:10288000012300220A213448FFF73AFDE5B21C205B
:102890006843C0B202002632D2B20A30C0B201236D
:1028A0001621FFF705FDFFF723FEFFF7EBFEC30739
:1028B00012D507AA135D0533135514239946230037
:1028C00007AA1257002A40DB07AAD256642ABFDDA6
:1028D00007AA6421D154BBE7830706D507AA135D75
:1028E000053B135514239946E9E7C3060DD54B461E
:1028F000002B06D107AA135D05331355052399460E
:10290000DDE7013B5BB29946D9E783060DD54B461F
:10291000002B06D107AA135D053B135505239946E5
:10292000CDE7013B5BB29946C9E74307C7D50135FF
:102930006CB2022CC3DD4346180206433804304310
:1029400009B00CBC90469946F0BD07AA002111556C
:10295000BAE7C046544100086041000830B583B072
:10296000002405E0DA073ED5002C3CD0013CE4B25F
:102970000020FFF7BFFBE000001940000019874D61
:102980004019012302220221FFF7BAFC01230C2285
:1029900000218348FFF7B4FC631CD800C018400036
:1029A000C018401901230C220C21FFF7A9FCA31C1D
:1029B000D800C0184000C018401901231622022177
:1029C000FFF79EFCFFF794FD3220FFF717FDFFF79E
:1029D00059FE03004207F7D08207C3D5092CC1D89E
:1029E0000134E4B2C4E75B07C2D5092C00D9D2E0B8
:1029F000A3006C4AD3589F46E1226B4D2868002300
:102A00000093053392000021FFF7A6FE2860002006
:102A1000FFF7CAFDACE7C822634D68680123009345
:102A2000043352006421FFF797FE68600120FFF72E
:102A3000BBFD9DE70020FFF75DFB01230222022181
:102A40005A48FFF75DFC01230C2202215848FFF78A
:102A500057FC0123162202215648FFF751FCFFF7CD
:102A600047FD3220FFF7CAFCFFF70CFE0323184096
:102A7000F7D0022806D0FFF705FEFFF703FEFFF7A9
:102A800037FD75E7484A936859424B419360FFF719
:102A90008BFDF0E7444DE868FFF7CCFEE8600320CB
:102AA000FFF782FD64E7404D2869FFF7C3FE286108
:102AB0000420FFF779FD5BE70020FFF71BFB0123F4
:102AC000022202213C48FFF71BFC01230C220221B9
:102AD0003A48FFF715FC0123162202213848FFF778
:102AE0000FFCFFF705FD3220FFF788FCFFF7CAFD5A
:102AF00003004207F7D0420706D52B4B00225A614C
:102B00000520FFF751FD33E7DB0703D5264B0122F4
:102B10005A61F5E7244B02225A61F1E70020FFF7E2
:102B2000E9FA0123022202212648FFF7E9FB0123EB
:102B30000C2202212448FFF7E3FB01231622022185
:102B40002248FFF7DDFBFFF7D3FC3220FFF756FCEE
:102B5000FFF798FD4307F8D00020FFF7CBFA0123D9
:102B6000022202211A48FFF7CBFB01230C2202218B
:102B70001848FFF7C5FB0123162202211648FFF76C
:102B8000BFFBFFF7B5FC3220FFF738FCFFF77AFDFB
:102B90004307F8D0ECE603B030BDC0468C3C0008DB
:102BA0006C410008443C0008880100207041000886
:102BB0008441000898410008AC410008C041000869
:102BC000D4410008E8410008FC4100081042000818
:102BD00024420008384200084C420008FA239B00B7
:102BE000984200D91800014B5863704700200040FC
:102BF00010B5FFF759FA0020FFF7F0FFFFF746FC8A
:102C0000A0220021124800F0BEFB124CBE236360DC
:102C10000023A360104AE26064222261636178337A
:102C20002360383BA3612833E361283323622733D1
:102C300063622833A3620823FF33E3623023FF3348
:102C40002363FFF7D1FC6268044B1A8010BDC046B5
:102C500054020020880100206464640060010020A8
:102C6000F0B5C64600B586B0FFF70CFD041E0ED1C8
:102C7000E30711D4A30729D430232340302B2ED1CE
:102C8000012398460020FFF7A9FF002474E0FFF716
:102C9000ADFBA74B9862EBE7A64A13880533138078
:102CA000A34A2C231421D154A34B1A685401A41A0B
:102CB000A400A418E4009E4B9B6AE418FFF796FB5F
:102CC000844200D3ABE000239846DBE7994A13889F
:102CD000053B1380964A2C231421D154E4E7E306E4
:102CE00012D5934A2C23D35C002B08D1914A138828
:102CF000053313808E4A2C230521D154D4E7013BA0
:102D00008B492C228B54CFE7A30612D5884A2C235B
:102D1000D35C002B08D1874A1388053B1380844A73
:102D20002C230521D154BFE7013B81492C228B5430
:102D3000BAE76307B8D50020FFF750FFFFF70EFE94
:102D4000FFF754FB7A4B9862AEE7FFF753FB67003F
:102D50007A4EC005C00DF053FFF74CFB3200143221
:102D60003F231840D053FFF745FB03231840283674
:102D7000023830550134E4B2092CE6D945E000228E
:102D8000BB5E0022B15EC8170322024052189210A7
:102D900052B2D81707210140C918C91049B20123FE
:102DA0006748FFF7ADFA0134E4B2092C22D8660077
:102DB000624BF7181D00283565190022AA5692B2F9
:102DC000398852183A801433F6180022B35E013B5A
:102DD0001BB233801033D2DAFFF70CFB8005800D75
:102DE000388080233380FFF705FB03231840023827
:102DF0002870C4E7FFF77CFBFFF744FC430709D1C9
:102E0000430702D54346002B04D00020FFF772F998
:102E10000024CAE7A0220021484800F0B4FA454B3C
:102E200000229A5EC8235B009A4203DD414BC82210
:102E300052001A803F4B00229B5E632B02DC3D4B0D
:102E400064221A800020FFF755F9012300220A218D
:102E50003C48FFF77FFA012310220A213A48FFF786
:102E600079FA0123082267213848FFF773FA314BBA
:102E70000020185E03A9FFF79DFA01230022182104
:102E800003A8FFF767FA324B0020185E03A9FFF78B
:102E900091FA01231022182103A8FFF75BFA2449B5
:102EA0002D228B5C0133DBB28B54032B38D00223F1
:102EB000009300235A2228212048FFF7B3F9FFF797
:102EC00017FB06B004BC9046F0BD5A1C1B4990008D
:102ED00040589B005850D3B2262BF6D91D4B0020EA
:102EE000185E400164214942FDF798F983B220330E
:102EF0009BB2202252429A1814D4012494402100FB
:102F000001229A40100000220123121A8B41140062
:102F10000A499C23CC50064A6F3B0021D154C6E796
:102F20000023D9E72022D21A0124D4402100E7E768
:102F3000840000206001002088010020540200204D
:102F40006042000864420008684200086C420008C1
:102F5000D0000020BC01002010B5FFF781FEFA2050
:102F60004000FFF73BFE10BD30B597B02C2200218A
:102F70000BA800F008FA10241022002106A800F087
:102F800002FA1422002101A800F0FDF91A230A9385
:102F9000193B0D930F930E941094119302251295E3
:102FA00080231B02139380235B0314930AA8FEF76C
:102FB00059F80723069307950023089309930121E5
:102FC00006A8FEF7BDFA054B0193049480239B00ED
:102FD000029301A8FEF764FB17B030BD200001008A
:102FE00010B5FDF743FAFFF7BFFFFEF74BFFFEF703
:102FF000A5FFFEF7D9FFFFF711F8FEF7F7FFFFF780
:103000003FF8FFF7F5FDFFF7A7FFFCE782B00A4B9B
:10301000996901221143996199690A400092009AC5
:10302000DA69802149050A43DA61DB690B400193C3
:10303000019B02B07047C0460010024010B588B036
:1030400004001422002103A800F09DF92268114B0E
:103050009A4201D008B010BD0F4B996980208000C2
:10306000014399619A6902400192019A5A6980214B
:1030700089020A435A615B690B400293029B032356
:10308000039304937138FF3803A9C005FDF7CCFB07
:10309000E0E7C046002401400010024010B588B0AF
:1030A00004001422002103A800F06DF92268124BDD
:1030B0009A4201D008B010BD104C62698021C9034A
:1030C0000A43626163690B400193019B03220392EF
:1030D00012230493113B05930692079303A9084812
:1030E000FDF7A2FBE269802189030A43E261E369FB
:1030F0000B400293029BDDE70054004000100240A9
:10310000001400480268054B9A4200D07047044AF8
:10311000116A80231B020B431362F7E7002800406B
:103120000010024000B583B00368134A934204D0F4
:10313000124A934214D003B000BD114AD1698020D5
:1031400040000143D161D36903400093009B0022FA
:103150000021ED38FDF712FB1320FDF73FFBEAE7F6
:10316000074A91698020C00201439161936903403D
:103170000193019BDFE7C04600200040004801406A
:103180000010024010B586B004001422002101A8EE
:1031900000F0F9F822680E4B9A4201D006B010BD3B
:1031A0000C4A5169802080020143516153690340F8
:1031B0000093009B102301930E3B0293013B049369
:1031C00003330593902001A9C005FDF72DFBE5E72A
:1031D00000200040001002407047FEE77047704733
:1031E00010B5FDF753F910BD10B50248FEF740FCCD
:1031F00010BDC046C801002010B503000B4A12687C
:10320000002A08D0094A1068C3186A46934206D8B3
:10321000064A136010BD054A05491160F2E700F047
:103220007FF80C23036001204042F3E7B400002044
:10323000F8040020134B1A6801210A431A605A68E7
:10324000114802405A601A68104802401A601A6811
:103250000F4802401A605A680E4802405A60DA6A03
:103260000F208243DA621A6B0B4802401A631A6B12
:10327000802002431A635A6B8A435A6300229A6081
:103280007047C046001002400CB8FF08FFFFF6FE72
:10329000FFFFFBFFFFFFC0FF6CFEFFFF13488546EB
:1032A00013480168090E134A914205D11248134987
:1032B000016013481349016013481449144A00235C
:1032C00002E0D458C4500433C4188C42F9D3114AD4
:1032D000114C002301E013600432A242FBD3FFF73C
:1032E000A9FF00F023F8FFF77BFEFEE7001800209F
:1032F000040000001F000000181002400100000040
:1033000000000140000000000000002068000020D4
:10331000AC42000868000020F8040020FEE700002E
:10332000014B18687047C0460400002070B50026A5
:103330000C4D0D4C641BA410A64209D1002600F0D0
:1033400065FC0A4D0A4C641BA410A64205D170BD51
:10335000B300EB5898470136EEE7B300EB589847B7
:103360000136F2E7A4420008A4420008A442000883
:10337000A8420008002310B59A4200D110BDCC5CD1
:10338000C4540133F8E703001218934200D1704788
:1033900019700133F9E70000124B10B51C68A36BDC
:1033A000002B0FD1182000F049F80F4BA0630360E9
:1033B0000E4B012243600E4B83600B23838100235D
:1033C00002614361A46B0B4A206961690A4BFDF7F6
:1033D00011F80122002380185941206161614800E1
:1033E000400810BD040000200E33CDAB34126DE652
:1033F000ECDE05002D7F954C2DF451580EB400B530
:103400000B499CB01DAB02900690079104910948AE
:10341000094904CB0591006802A9019300F022F943
:103420000023029A13701CB008BC03B01847C046B2
:10343000FFFFFF7F040000200802FFFF10B5034BD1
:103440000100186800F04EF810BDC04604000020CE
:1034500070B50500002910D00C1F2368002B00DA7E
:10346000E418280000F0A2FB1D4A1368002B05D1C8
:1034700063601460280000F09AFB70BDA34209D974
:10348000216860188342F3D118685B684118216095
:10349000EEE713005A68002A01D0A242F9D9196850
:1034A0005818A0420BD12068091858181960824298
:1034B000E0D110685268411819605A60DAE7A042FA
:1034C00002D90C232B60D5E721686018824203D112
:1034D000106852684118216062605C60CAE7C046AB
:1034E000BC000020032370B5CD1C9D4308350600A9
:1034F0000C2D1ED20C25A9421DD8300000F056FB21
:10350000254A14682100002919D1244C2368002B76
:1035100003D1300000F01AFB20602900300000F0D9
:1035200015FB431C2BD10C233000336000F03FFB14
:1035300003E0002DDFDA0C233360002070BD0B6840
:103540005B1B19D40B2B03D90B60CC18256003E04F
:103550004B688C420DD11360300000F028FB200036
:1035600007220B30231D9043C31AE7D05A42E25082
:10357000E4E763600C00EFE70C004968C3E703234E
:10358000C41C9C43A042E1D0211A300000F0DEFAB6
:10359000431CDBD1C7E7C046BC000020C0000020B0
:1035A000F0B58E6885B007000C00039201939E422F
:1035B0003CD890238A89DB001A4234D0032509695C
:1035C00023685B1A0293636902985D43EB0F5D19F0
:1035D000019B6D1001331B18AB4200D91D00530530
:1035E00032D529003800FFF77DFF061E09D10C23D4
:1035F0003B6040230120A28940421343A38105B0D0
:10360000F0BD029A2169FFF7B5FEA389144A1A405A
:1036100080231343A381029B2661F618266065610F
:10362000019EED1AA560019B9E4200D9019E3200C9
:103630000399206800F0A7FAA36800209B1BA360F1
:1036400023689E192660DAE72A00380000F0B0FAF5
:10365000061EE0D121693800FFF7FAFEC7E7C04631
:103660007FFBFFFFF0B5A1B003901D008B890F0019
:1036700016001B0611D50B69002B0ED14021FFF758
:1036800031FF38603861002805D10C23039A0138D6
:10369000136021B0F0BD40237B61002308AC63615F
:1036A000203363761033A376079535002B78002BF3
:1036B00001D0252B46D1AB1B05930CD0320039002D
:1036C0000398FFF76DFF431C00D1AEE06269059BD4
:1036D0009446634463612B78002B00D1A5E001225E
:1036E00000235242626004A9543252186E1C2360B7
:1036F000E360A3601370A36531780522534800F09E
:1037000037FA751C00281FD12268D30604D553232D
:1037100004A95B1820211970130704D5532304A9A9
:103720005B182B21197033782A2B16D03500002115
:103730000A20E3682A786E1C303A092A4ED90029FB
:1037400018D010E00135B1E7404B2268C01A0123C0
:103750008340134323602E00CEE7079B191D1B688F
:103760000791002B01DB0B9304E05B42E360022333
:10377000134323602B782E2B0AD16B782A2B35D15B
:10378000079B02351A1D1B680792002B2BDB099340
:103790002F4E29780322300000F0EAF9002806D0E5
:1037A0004023801B8340226801351343236029781E
:1037B000062228486E1C217600F0DAF900283CD059
:1037C000254B002B25D10722079B07339343083352
:1037D00007936369049A9B18636166E74343012179
:1037E0009B183500A6E701235B42D0E700230A209F
:1037F0001A000135636029786E1C3039092903D914
:10380000002BC5D00992C3E742430123521835006B
:10381000F1E707AB00933A00104B2100039800E05A
:1038200000BF0490049B0133D3D1BB890D985B0684
:1038300000D42EE7012040422BE707AB00933A006B
:10384000064B2100039800F079F8EAE7704200087F
:10385000764200087A42000800000000A135000806
:10386000F7B5150001938A680B6900900C0093422C
:1038700000DA130022002B6043321278002A01D0B4
:1038800001332B6023689B0602D52B6802332B6023
:10389000062723681F4027D0230043331B785A1E76
:1038A00093412268920630D4220001994332009855
:1038B000089EB047431C25D0062320682A68E1688B
:1038C00003400025042B03D18D1AEB43DB171D4069
:1038D000A3682269934201DD9B1AED180027BD42BF
:1038E00020D1002010E00137E3682A689B1ABB4210
:1038F000D2DD22000123193201990098089EB047B9
:10390000431CF0D101204042FEBD3020E11843317C
:10391000087021005A1C45310978A218433202333D
:103920001170C1E7220001231A3201990098089E04
:10393000B047431CE6D00137D1E70000F0B589B0AD
:1039400004920A0043320593039002920A7E0C000F
:103950000E9B6E2A00D186E01FD8632A33D008D888
:10396000002A00D18CE0582A4DD0250042352A701B
:1039700030E0642A01D0692AF7D1196825680A1D48
:10398000280629D508681A60002803DA2D23029A30
:10399000404213706B4E0A274FE0732A74D008D848
:1039A0006F2A1FD0702AE0D1202209680A432260C2
:1039B00003E0752A16D0782AD7D122007821453223
:1039C0001170614E22E025001A684235111D196000
:1039D00013682B70012365E008681A606906D3D567
:1039E00000B2D1E719682568081D186008682E061E
:1039F00005D5544E08276F2A1BD00A2719E06D06FB
:103A0000F7D580B2F5E745314E4E0A701868226846
:103A1000011D00681960150621D5D30702D52023A2
:103A20001A4322601027002803D1202322689A43DA
:103A300022602300002243331A706368A360002BC6
:103A400058DB0422216891432160002854D1029D53
:103A5000002B5AD02500337842352B7055E055069F
:103A6000DBD580B2D9E71A680D68101D4969186066
:103A700013682E0601D5196002E06D06FBD519808A
:103A80000023029D23614FE01A68111D196015681B
:103A900000216268280000F06BF8002801D0401B6C
:103AA0006060636823610023029A13703CE023691D
:103AB0002A0004990398059DA847431C3ED023681B
:103AC0009B0715D4079BE068984239DA180037E065
:103AD00022000123193204990398059EB047431C24
:103AE0002CD00135E368079A9B1AAB42F0DCE9E77A
:103AF0000025F7E70028ADD0029D3900FCF78AFBCE
:103B0000735C013D2B700028F7D1082F09D1236881
:103B1000DB0706D563682269934202DC3023013D4E
:103B20002B70029B5B1B2361059B07AA009321005E
:103B3000049B0398FFF794FE431CB8D10120404238
:103B400009B0F0BD8142000892420008002370B520
:103B5000064C050008002360FFF74EFB431C03D111
:103B60002368002B00D02B6070BDC046F4040020F9
:103B7000C9B28218904201D10020704703788B426D
:103B8000FBD00130F6E710B5884202D98B18984275
:103B900003D3002307E08B5C8354013AFBD210BDB2
:103BA000CC5CC45401339A42FAD1F8E770477047AD
:103BB000F8B507000D001600002905D11100FFF728
:103BC00091FC04002000F8BD002A03D1FFF740FC5F
:103BD0003400F7E700F012F82C00B042F2D23100C6
:103BE0003800FFF77FFC041EECD029003200FFF7FD
:103BF000C1FB29003800FFF72BFCE3E70B1F1B6814
:103C0000181F002B01DA0B58C0187047F8B5C046D2
:103C1000F8BC08BC9E467047F8B5C046F8BC08BC66
:043C20009E46704705
:103C240002030405060708090A0B0C0D0E0F1010F9
:103C34000102030405060708090A0B0C0D0E0F10F8
:103C4400962B0008F8290008162A0008342A0008D0
:103C5400942A0008A62A0008B82A00087029000837
:103C6400702900081C2B0008AED580A8D300408D15
:103C74002001A1C8DA02818FDB40A4A62EAF000088
:103C840022000321007F000000000000000000006B
:103C94000000000000000000000000566F6C74611A
:103CA40072000000000000000000000000005465E5
:103CB4006D706F20702F20646F726D697200000048
:103CC4000054656D702E20696E696369616C000033
:103CD400000000004D7E6F20757361646100000078
:103CE40000000000000000436F72204C4544206532
:103CF40073746076656C00000000436F72204C455D
:103D04004420696E73746076656C000000556E69BA
:103D1400646164652054656D702E0000000000002D
:103D240043616C69622E2054656D706572617475AF
:103D340072610043616C69622E20436F6E74726F0E
:103D44006C6500000000536F6272650000000000A3
:103D5400000000000000000000000000000000005F
:103D6400000000000000000000000000F00FFC3F15
:103D74000E7006E003C003C003C003C007600E70EA
:103D8400FC3FF00F000018C01CC00EC006C0FFFFAF
:103D9400FFFF00C000C000C000C0000006C006E075
:103DA40003F003D803CC03C683C3C7C1FEC03CC021
:103DB40000C000000660066083C183C183C183C163
:103DC40083C1C7E37E633C3E001C0000000E000F6D
:103DD400800DC00C700C3C0C0E0C070CFFFFFFFF99
:103DE400000C000C00607FE07FC063C063C063C050
:103DF40063C0E360C370C33F001F0000E00FF83FDF
:103E04001E7386E187C183C183C183C18363063F77
:103E1400001E000003000300038003F003FC031FE3
:103E2400C307F3017F001F0007000000003C1C7E55
:103E34003E6367C1E3C1C3C0C3C0C3C1E7C13E633E
:103E44001C7E003C7860FEC0C6C183C183C183C1AF
:103E540083E18761CE38FC1FF00700003C007E80C0
:103E6400C3E07E703C1C000FC003703C387E1EC350
:103E7400077E013C1C003E00630063003E1F9C7FE4
:103E8400C07160C060C060C0E060C0708000C001EC
:103E9400B00690040808BC1E08089004B006C001CF
:103EA4008000000000000070FE8F01B0C1BFC1BFE0
:103EB40001B0FE8F0070540544040000008000C16E
:103EC4008071E03DF83FFE1FFF0FFF07FF03DF0196
:103ED400CF0003000000000000000000BF0000004D
:103EE40000070007000020F42FF42F0400A44A5216
:103EF400250006C93E649360609699A640B0000010
:103F04000300000000007E8100000000817E0000AC
:103F14000A041F040A0010107C10100000008060C6
:103F2400000000101010000000008000000000C01D
:103F3400380601007E8181817E008281FF808000BD
:103F440082C1A1918E00428989897600302C23FF99
:103F540020004F89898971007C8A8989710001C197
:103F6400310D03007689898976008E9191513E0046
:103F740000002400000000008064000010102828C5
:103F8400440024242424240044282810100000027F
:103F9400B10906007EB9453D413EF02C232CF000CA
:103FA400FF89898E70003C4281818142FF81818139
:103FB400423C00FF89898900FF09090900003C424D
:103FC40081919172FF08080808FF0000FF000000BB
:103FD400000080807F00FF081462810000FF808061
:103FE4008000FF0C300CFF00FF030C30C0FF3C428C
:103FF4008181423CFF1111110E003C4281A142BC5F
:10400400FF111131CE000046899162000101FF01C8
:1040140001007F808080807F0F30C0300F001FE060
:1040240018E01F00C3241824C300030CF00C030081
:10403400C1A1918985830000FF8100000001063839
:10404400C000000081FF0000000201020000808027
:104054008080808048A8A8AAF10064949494F80011
:10406400FF88888870000078848484007088888839
:10407400FF000078949498000008FE090900D6A96E
:10408400A9A74100FF100808F0000000FD0000008F
:104094000080807D000000FF106884000000FF00A5
:1040A4000000FC0804F804F8FC080404F800788410
:1040B40084847800FC242424180018242424FC007C
:1040C40000FC08040400009894A4640000047F84A5
:1040D40084007C808040FC000C30C0300C003CC06C
:1040E4003030C03C84483048840004C830080400A0
:1040F40000C4B48C0000001CA26222000000FF0077
:10410400000000816E1000000249A9AAAAF102056C
:104114007A8484840000000000000000010203048B
:104124000607080900000000010203042533643B6C
:1041340000000000454550524F4D20726573657470
:10414400210000004F46460025346400530000005F
:104154002533642025336420253364002052202035
:1041640020472020204200003E3E000020205365CE
:104174006C6563616F206465206D7E6F3A2000007A
:104184002020417065727465206F20626F747E6FA9
:10419400202000002763696D6127206571756976A9
:1041A400616C656E746500002046616872656E68B6
:1041B4006569742020202020202000002020202059
:1041C40020202020202043656C6369757320000043
:1041D400204B656C76696E20202020202020202032
:1041E400202000004D6963726F657374617B7E6F7C
:1041F4002054532D31320000432E4E2E2027466585
:104204007272617373756465722700002020204602
:10421400572E207665722E20312E3020202000006B
:1042240020446573656E766F6C7669646120706F87
:10423400722000002046656C697065202620456464
:10424400756172646F200000204D616B61726120A2
:1042540020204A6167686572202000005A0000002F
:104264003C0000003D0000003E000000232D302BE8
:104274002000686C4C006566674546470030313263
:1042840033343536373839414243444546003031BA
:104294003233343536373839616263646566000019
:0442A400E900000825
:0442A800C100000849
:1042AC0000127A000800002000000000000000004E
:1042BC0000000000000000000000000000000000F2
:1042CC0000000000000000000000000000000000E2
:1042DC0000000000000000000000000000000000D2
:1042EC0000000000000000000000000000000000C2
:1042FC0000000000000000000000000000000000B2
:08430C000000000000000000A9
:040000050800329D20
:00000001FF
